:400000000080002011000000D5090000D509000010B501F00DFC00F04FFE00F0E3FCC04610B50E4C12232360302001F079FBCC2292010B4B1A600B4A0B4B1A6044220B4BC4
:400040001A60043A0A4B1A6000220A4B1A60002001F0F6FB1123236010BDC046300010400003014040FF00800000014028000340000101400C02224010B572B699220E4B9A
:400080001A60EE2212020D4B1A6002230C4A13600C490D4A11600D4A1360D82109010C4A11600C4A136030220B4B1A60FFF7B8FF00F07CFC10BDC0460001024000030240D6
:4000C00000010440310018000801044018010440080304400005044008050440000000000000000000000000000000000000000000000000000000000000000000000000DF
:4001000010B5064C2378002B07D1054B002B02D0044800E000BF0123237010BD4801002000000000B81C0000084B10B5002B03D00749084800E000BF07480368002B00D106
:4001400010BD064B002BFBD09847F9E7000000004C010020B81C0000C00000200000000010B562B60A2001F05DFA01F081F8024A136801331360FAE7C400002010B51100C9
:40018000024801F01DF9002010BDC046FE03000070B505000E1E03D101F0CEFB86B221E000280FD101F0C8FB864202D301F0C4FB86B2340003E001F0A3FB013CA4B2002C37
:4001C000F9D10FE001F0B8FBB04208D2002609E001F096FB28700135013CA4B200E03400002CF5D1300070BD10B50C1E03D101F0FFFB84B205E0002802D001F0EDFB00E005
:400200000024200010BDC04610B5134C5A2323702A3B63700533A3700022E270227162710132A2710523E3710B320433FF33E25423000933FF33803A5A7008212000FFF724
:40024000D3FF012001F0EEF920000930FF300221FFF7CAFF10BDC046C802002010B501F03FFB012001F0DEF9FFF7CEFF10BDC04610B5134C5A2323702A3B63700633A37065
:400280000022E270227162710132A2710523E3713F3A0433FF33E25423000933FF33AA325A7008212000FFF79FFF012001F0BAF920000930FF300221FFF796FF10BDC046A8
:4002C000C80200200200002005E0054B1B5C934204D00130C0B20C28F7D900207047C046BC1C0000F0B557464E464546E0B482B06B4600229246DA80DA8892B205781402DC
:40030000120A6A404A4F5200BA18128A624092B2DA80DA8892B245781402120A6A405200BA18128A624092B2DA80DA8892B285781402120A6A405200BA18128A624092B2FA
:40034000DA80DC88A4B2C578027912022A4345792D042A4385792D0615432602240AFF2294462A40544064003C19248A3200624092B2DA80DA8892B22C0AA1461402A04664
:40038000140A4A466646324062405200BA18128A4446624092B2DA80DA8894B22A0C914622029046220A64464E463440544064003C19228A4446624092B2DA80DC88A2B23D
:4003C0002D0E1402A446140A2A0062405200BA18128A6446624092B2DA8001AB52461A8015E06B469C1DDB889BB201AA15884519EE791D021B0A73405B000D4EF3181B8AD7
:400400006B409BB22380138801339BB2138001AB1B889BB28B42E4D36B46DA8892B2DA80D88880B202B01CBC90469946A246F0BDBC1C000030B583B06B46991D00230B8036
:400440000B889BB202781D021B0A5A400D4C5200A218138A2A005A4092B20A800A8893B2457818021A0A2B0053405B00E3181B8A43409BB20B800B889BB20B80088880B29D
:4004800003B030BDBC1C000070B5040004220021124801F004FC062C06D8104B5A221A700F4A125D5A7017E00C4D5A232B700C4B1B5D6B702800FFF7BDFF04002800FFF7F8
:4004C000B9FFFF23984380B2030A20021843688004212800FFF788FE70BDC046DC040020BC1C0000F0B585B001900026E2E000210020FFF74DFE071E0ED1D6E0012001F02E
:4005000091F8784D01212800FFF742FE2B785A2B07D00134E4B200E00024A3B29F42EDD200E00126012E21D1012001F07BF86E4C01212000FFF72CFE2078FFF7C3FE0028EA
:4005400009D006280FD8032801D006280DD102ABD87102260AE0852252000021614801F09EFB002602E0052600E00226022E04D101215E48FFF70CFE0136032E42D101208C
:4005800001F050F85A4C04212000FFF701FEE01E247802791202224343791B0413431A0083791B0613431C061A02FF2109040A40200010431A0AFF2109020A4002431B0EA7
:4005C00013434C4A136085225200934217D902AA07321278062A05D10222FF32454B1A6001360FE002AA07321278032A09D1424A13600222FF323F4B1A60042602E00426E0
:4006000000E00426042E19D102AB07331B78032B0AD002AB07331B78062B09D104E000210020FFF7B5FD0700324B1B689F42F6D1304B19883148FFF7ABFD0526052E39D176
:400640002F4C02212000FFF7A3FD20000938FF3884235B00C35C0A22FF32845C24021C4364BAA4B2234B1988FFF73CFE844220D102AB07331B78DBB2062B12D802AB073338
:400680001B78032B04D002AB07331B78062B04D10B20FFF7F9FE062603E00720FFF7F4FE002602AB07331B7804E0142000F0BAFF00E00026062E00D019E70ED10D4B1A68CB
:4006C000013A1049019801F0E1FA0820FFF7DCFE022000F0A7FF002000E00120C0B205B0F0BDC046E8040020E9040020EA040020EB040020E0040020D4040020EF04002011
:40070000F0050020F004002010B5140080235B03984207D1802252000449200001F0B6FA002002E01000FFF7DDFE10BD00FE0300002306E04218013A12789B189BB20139EF
:4007400089B20029F6D1584280B2704770B50D00140001230B70AA70130ACB70161DB1B22800FFF7E5FFA855631D000AE854063417232B55002070BDF0B583B004001500E7
:40078000764B1B68002B75D10122744B1A60744E32008021490080204003FFF7B5FF33784C2B2DD06F4B188800026F4E320080214900FFF7A9FFF378B2781B029B189BB219
:4007C0006A4A1380654A5360727831781202521892B2674909680239FF3901910199090A89B20139634801805D490B741B0A4B740A72120A4A720A795F4B1A7056230B707F
:40080000574B1B78562B08D11E3B6370313B2B800022544B1A80002097E04C2B18D1002000F06AFA002807D1FFF722FD642000F0F9FE002000F092FAFFF71AFD642000F083
:40084000F1FE002000F08AFA0022012040427CE0002000F051FA002805D100F07FFA00220120404271E0002000F096FE0022012040426AE0012B65D13E4B1A88394B1B8895
:400880009A424BD3394A13883921417011883B4A914202D9FF3AFF3A00E00022227163711B0AA3712F4F38880002E61D320080214900FFF729FF2F4B1B88013B3A889342C8
:4008C0000FD101232371FF226271A371264EE11D0132300001F0DAF93100294800F070FD0DE0224B1888254B984208D9FF3BFF3B2371FF226271A371310000F061FD852364
:400900005B002B80174A138801331380174A1388013313800422FF32002016E0104A4C231370802149000020FFF728FCFFF7A0FC144800F077FE3B236370343B2B8000228E
:40094000002002E000220120404292B2C0B22100FFF7FCFE002003B0F0BDC0466C010020D403002000070020F4050020E4040020D40400200207002066010020FF010000EF
:40098000FF0300008813000010B50023034A1360034A1360FFF762FC10BDC046F80600206C0100207047C046002070470322054B1A60202304490B6004490A60044A13606A
:4009C0007047C04630003040000E3F4030004040000E4F4010B501F02DF903680C2B00D1FEE7FEE770B50F4E0F4D13E029686B68AC68002202E001C901C30432A242FAD1E7
:400A0000E868002202E0002102C304328242FAD11035013E002EE9D101F012F9FFF7A0FBFEE7C046010000009C1F000010B500230AE0032B03D89A000B49505800E00B4873
:400A400099000B4A885001332C2BF2D9FFF714FB084B1B68002B02D10022064B1A6080229205054B1A6010BD00000000D509000000000020B800002008ED00E0002306E010
:400A80004218013A12789B189BB2013989B20029F6D1584280B2704730B5002307E01C182478E4B2CD5CAC4205D101339BB29342F5D3002000E0022030BDC0460047C0466D
:400AC00010B58022024B1A6000F0A0FD10BDC046B8000020F0B583B00D006B469E1DDA8001230B7048701400AA70130ACB70171DB9B22800FFF7C2FFE855631D000AE85487
:400B0000A31D1722EA540734A1B2962332002800FFF74AFF03B0F0BD70B505000E001400002802D0002000F037FD002004E0013CAB19E35CC018C0B2002CF8D170BDC046FE
:400B400070B5C0B00500000AFF232C009C43002304E01A5D6E46F25401339BB2FF2BF8D9FF231D406B4659550004000C694600F027FC40B070BDC04610B50C2863D8800029
:400B8000404B1B589F460B06591A0B023E4A9446634401225CE00B06591A0B023B4A94466344042254E00B06591A0B02384A9446634402224CE00B06591A0B02354A94469A
:400BC0006344042244E00B06591A0B02324A9446634401223CE00B06591A0B022F4A94466344012234E00B06591A0B022C4A9446634402222CE00B06591A0B02294A9446DF
:400C00006344022224E00B06591A0B02264A9446634402221CE00B06591A0B02234A94466344042214E00B06591A0B02204A9446634401220CE00B06591A0B021D4A94464D
:400C40006344042204E0002000F0A6FC02220023012A02D11878C0B200E00020022A03D11978587800020843042A09D11A785878000210439A7812041043DB781B06184313
:400C800010BDC046CC1E0000C0FF0300C1FF0300C5FF0300C9FF0300D0FF0300D1FF0300D6FF0300D2FF0300D4FF0300D8FF0300DCFF0300E0FF030010B50D4B1B68DB061E
:400CC00002D400220B4B1A600A4B1B68802B0ED10022084B1A6000210220FFF74DFF002805D000210220FFF747FFFFF7E7FE10BD54000340B800002070B505000100032075
:400D0000FFF73AFF441C240229000420FFF734FF241829000320FFF72FFF421C12020023002608E01078411EC9B2FD2900D801261B18DBB20132A242F4D35B42DCB22900C0
:400D40000120FFF719FF844203D1002E03D1062002E0062000E0002070BDC04670B50500022803D10022124B1A601DE0FFF7C4FF00280FD015E0611B4B425941C9B223062D
:400D80001B1B18020B4B9C466044FFF7D9FE0134E4B200E00024002CEDD08022044B1A6002E00022024B1A6000F030FC70BDC046B8000020D0FF0300F0B55F4656464D46DA
:400DC0004446F0B4CC4CA5440500FFF7DDFD62B600239A4698460A240027002D01D1FF2300E02B00C54A02A98C4662449621490052A8FFF7C1FC002D01D0013CE4B2002C99
:400E000001D00028E9D1002800D01DE2BB4B02AA944663441B88062B24D952AA1278012A22D152A9CA78120289780A431700110007329A421AD896235B009A4218D87A1D1B
:400E400052AB9E5C3202381D1E5C164306315B5C172B0FD181B252A8FFF710FE86420BD100260AE0042608E0042606E0032604E0032602E0042600E00826002E00D086E153
:400E800052AB1A7993465A781300313BD9B2142900D94CE18B009A49CB589F464346012B00D076E1002F00D076E10020FFF724FF4342434152AA13710122BEE14346012BC9
:400EC00000D06CE1032F04D00423FF339F4200D068E152AA93791B02527913439946032F08D0FA1E4821FF3102AB9C46614407A800F0CCFE5B46002B00D056E19802484406
:400F00000002804B994500D90A26002E00D04FE18022520007A9FFF7BFFD060000228CE14346012B00D045E1012F00D045E15B46002B00D044E1744B1B681B689A0CD2B263
:400F4000934503D11B0A9B059B0D05E0934501D9002301E08023DB0052AA13711B0A5371FF239371FC3BD371042266E1342A0ED14346012B00D026E1032F00D026E1CC32F8
:400F8000002107A800F08BFE80235B009A464346012B00D01DE1022F00D81DE107A85044FA1E4821FF3102AB9C46614400F06EFE3B0053449BB20422FF32934200D00EE1F2
:400FC00052AA93791B02527913439A464D4B9A4500D90A26002E00D008E15B46980280B2504480B2484B1B681A68130A9BB2FF21114201D001339BB2834200D9FAE007A942
:4010000000F0DEF9002800D1FBE000239A4680277F000A26002210E14346012B00D111E10426002209E14346012B00D0EFE05346FB1896225200934200D9EBE007A8504435
:401040003A0053A900F022FE5346FB189BB29A460022F2E0002F00D0DFE004AA2B4B03CB03C253AA04AB03CB03C200239A46013398460822E1E04346012B00D0D0E0032F42
:4010800000D0D0E052AA93791B025279134399465B469902494409021A4B994500D90A26002E00D0C2E0802252000020FFF734FD030001905A46920292B24A4492B2594613
:4010C000002913D10F498A4210D100210520FFF753FDC0B2019B1B1ADBB2994600210620FFF74AFDC3B24A46D31ADBB25B4252AA13710122A1E0C04684FDFFFF6E020000EA
:40110000001F0000FF030000C8000020541F00000020FFF7F1FD002802D18022524B1A60FFF740FC00F072FA0426002285E04F4B1E68002E7CD04346012B7CD102AB1A7069
:401140005F8053AB03930C22002104A800F0A7FD04AB9B4653AA0692190002A8B0475B469A882623FF339A4203D953AB0699994207D0069B002B01D1002A05D1049BDEB27C
:401180005BE00E26002258E00E26002255E0002253E00426002250E0042600224DE0042600224AE00426002247E00926002244E0002242E0042600223FE0042600223CE01C
:4011C0000426002239E00426002236E00426002233E00426002230E0042600222DE000239A4680277F000326002226E080277F00002222E000239A4680277F000A260022D5
:401200001BE000239A4680277F00002215E00426002212E0032600220FE0042600220CE00426002209E00426002206E0002204E00526002201E00526002252A93000FFF7BA
:4012400049FC01E000239A46002D00D1C5E54346012B00D1C1E59F239B009D443CBC90469946A246AB46F0BDB80000207401002010B50020FFF740FD002801D0062200E07A
:401280000022074B1B68402B01D0002A05D00022034B1A600020FFF78FFDFFF711FC10BDB800002082B0134B0093134B0193134B6A461A601249134A1160C0461B681B0F4F
:4012C0001B07F0221206934204D10C4B1B68FF2018400DE0094B1B681B0F1B07A0221206934204D0054B1B68FF20184000E0002002B07047B6E900007801002008001040D1
:401300001600008004001040104B114A1A601149114A1160C0461B681B0F1B07F0221206934204D1094B1B68FF2018400DE0074B1B681B0F1B07A0221206934204D0034B97
:401340001B68FF20184000E00020704708001040B6E80000150000800400104082B0134B0093134B0193134B6A461A601249134A1160C0461B681B0F1B07F0221206934243
:4013800004D10C4B1B68FF2018400DE0094B1B681B0F1B07A0221206934204D0054B1B68FF20184000E0002002B07047B6EA00007801002008001040170000800400104045
:4013C00030B5C5B00400002343934293404B984278D8002976D08022520002A800F056FC3C4B9C4201D93C4B00E03C4B0093FF2301933B4B6A461A603A493B4A1160C04618
:401400001B681B0F1B07F0221206934204D1344B1B68FF2213400DE0314B1B681B0F1B07A0221206934204D02D4B1B68FF22134000E000234393439B002B45D100F07DFB09
:401440000500FFF72FFF4290429B002B02D1FFF75BFF4390439B002B25D1244A0092009A2404144300941E4A6946116020481E490860C0461268120F1207F02109068A4262
:4014800004D1174B1B68FF2213400BE0144A1268120F1207A02109068A4203D0104B1B68FF2213404393429B002B07D1FFF756FF4290429B002B01D0429B4393280000F0C9
:4014C00040FB01E004234393439845B030BDC046FF030000FF010000B6D70001B6D70000080010400400008004001040B6D800000500008070B5040000F01FFB0500102C3C
:4015000005D8104A136803218B43136016E0202C07D80C490B6803229343023A13430B600CE0302C07D807490B6803229343013A13430B6002E0002000F02EF8280000F0A2
:4015400000FB70BD30001040024A1168024B0B401360704700002240FFFFFFBF034B18688023DB05184000D001207047000022401F2318401E3B8340014A13607047C0463A
:4015800000E100E01F2318401E3B8340014A13607047C04680E100E001BE704770B504000D001C2802D90020FFF7F6FF1034A40080239B059C4664442068256070BDC0462D
:4015C00070B504000E00032902D90020FFF7E4FF1C2C02D90020FFF7DFFF03252540ED00063500F0AAFAA408A400074B9C46644421680323AB4099430B003100A940194331
:40160000216000F09EFA70BD00E400E0034A13681B041B0C02490B43136070470CED00E00400FA0510B5040006E0084B586800F07BFA074B9C46644480231B029C42F4D896
:40164000024B9868604300F06FFA10BDD00000200080FFFF30B583B000F0E0F8002849D000F06BFA0400244B196889001C2319401831224B1B689B0803221340D940204B83
:401680001A68204B1340204A4A438020C00184466244D20B013A5205520D1343A02252031A431000192902D8184A13430CE0184BCB181B781A39174A525C9A18FF2A00D9CB
:4016C000FF229205030013430D4A1360124D2B6801933020FFF70EFF104A13688021C9050B4313601420FFF79DFF019B2B60200000F027FA03B030BD080F034028000340AE
:401700000800224000F800C040420F000000D43F4DF3FF0F5C1F00003000104000002240F0B583B0040018280BD01C2809D0202807D0242805D0282803D02C2801D0302844
:4017400049D100F0FAF90190FFF708FF002803D0FFF7FAFE012600E00026214A136807218B4313601F4BE3181B78DBB21E4A13601E4A13688B4313601D4803687F229343AE
:4017800019001C4BE3181B7813400B430360322000F0CAF9182C16D9114F3B680725AB431A0023001C3B9B082B4013433B60322000F0BAF93A68AA432300183B9B082C0066
:4017C0001C4014433C60012E01D1FFF743FF019800F0B7F902E00020FFF7DEFE03B0F0BD080F03404DF3FF0F0C0F0340100F0340180F034034F3FF0F10B5034B1B7B5843A9
:4018000000F092F910BDC046D0000020024B1868800F80077047C0460C022240034B1B68002B01DA012000E00020704700002240014A024B1A6070476588EDAC380003407F
:4018400010B50400FFF7E2FFA0421AD0144A136803218B431360134B1B689B0F01D17C2001E086204000FFF7C7FF00F066F90D4A13689B009B08A40FA4071C43146000F0C2
:4018800060F9074B1B6803229343064A1268920F01D1023200E001221343014A136010BD140222400C02224010B50720FFF760FE10BDC04610B500F025F910BD10B500F05A
:4018C000ABF810BD10B5054A1368802109060B431360FFF7E9FFFFF7EDFF10BD0000244010B5064B1B78002B04D1FFF7E7FF0122024B1A70FFF7E6FF10BDC04690010020A9
:401900000A4B1A680A4B1B689A420DD0084B1B6801331022FF32934200D10023054AD05CC0B2034A136000E000207047100700200407002014070020084B1B68084A126866
:40194000934203D3064A1068181A05E0044A10681B1A1033FF3318007047C0461007002004070020154B1A68154B1B689A4208D1144B1B681F221340082B02D0124B18606C
:401980001BE00E4B1A68013280235B009A4200D100220B4B1B689A42FBD002230B490B60C0B20B49885405490A600A4A1268134203D1084A11680B4313607047240900200C
:4019C0000C0700200802244040022440800F244024080020880F244070B506000D00002403E0305DFFF7BEFF0134AC42F9D370BD074B1868074B1B68984203D8054B1B689C
:401A0000181A04E0034B1B68181A0130FF3070470C0700202409002070B5204A204B1A600024204B1C60204A204B1A60204B214A13600721204A1160204A14600639204A55
:401A40001160204A1360204B1C6004251F4B1D600720FFF797FD00210720FFF7B1FD1C490720FFF79BFD1B4B1C601B4B1C601B4B1C601B4B1C601B4B1D601B4B1C601A689B
:401A80001A4B1A801A4B1C601A4B1C601A4B1C701A4B1C601A4B1C6070BDC0460B000002000024404000244001000A004800244007000080000324400403244010032440E3
:401AC00044002440000224400402244050002440491B0000880E2440C80E2440480F2440080F2440C80F2440880F244098010020100700200407002008070020240900201F
:401B00000C07002005490B68F0229343603A13430B60034B1A88034B1A6070470001024098010020880F24400230800803D001300238FCD1C046C0467047EFF3108072B6E6
:401B4000704780F31088704710B5294B1B68002B00D09847274B1B685B071FD5264B1B6801331022FF32934200D10023234A1268934205D1224B1B682022224B1A7006E016
:401B80001F4A1268D2B22049CA541B4A13601F4B1B68DB06E2D104221D4B1A601D4B1B689B0723D51C4B1A681C4B1B689A4215D01A4B1B68013380225200934200D10023E4
:401BC000174AD25CD2B217490A60144A1360164B1B681F221340082BE4D104E0134A136802218B4313600222114B1A6010BDC04694010020CC0F2440100700200407002094
:401C000040032440080700201407002008032440C00F24408C0F2440240900200C070020240800204002244008022440880F2440800F2440014B18687047C0464401002036
:401C40000E4B70B500251E000D4CE41AA410A54204D0AB00F35898470135F8E700F08CF9084B00251E00084CE41AA410A54204D0AB00F35898470135F8E770BD841F00006D
:401C8000841F0000841F00008C1F0000002310B59A4203D0CC5CC4540133F9E710BD03008218934202D019700133FAE770470000004C000015000000000000000010203021
:401CC00040F0AAB1B4B2B6B5B700000000002110422063308440A550C660E770088129914AA16BB18CC1ADD1CEE1EFF13112100273325222B5529442F772D662399318837E
:401D00007BB35AA3BDD39CC3FFF3DEE36224433420040114E664C774A44485546AA54BB528850995EEE5CFF5ACC58DD55336722611163006D776F6669556B4465BB77AA757
:401D400019973887DFF7FEE79DD7BCC7C448E5588668A7784008611802282338CCC9EDD98EE9AFF9488969990AA92BB9F55AD44AB77A966A711A500A333A122AFDDBDCCB17
:401D8000BFFB9EEB799B588B3BBB1AABA66C877CE44CC55C222C033C600C411CAEED8FFDECCDCDDD2AAD0BBD688D499D977EB66ED55EF44E133E322E511E700E9FFFBEEFD7
:401DC000DDDFFCCF1BBF3AAF599F788F8891A981CAB1EBA10CD12DC14EF16FE18010A100C230E3200450254046706760B9839893FBA3DAB33DC31CD37FE35EF3B102901211
:401E0000F322D2323542145277625672EAB5CBA5A89589856EF54FE52CD50DC5E234C324A01481046674476424540544DBA7FAB79987B8975FE77EF71DC73CD7D326F23656
:401E40009106B01657667676154634564CD96DC90EF92FE9C899E9898AB9ABA94458654806782768C018E1088238A3287DCB5CDB3FEB1EFBF98BD89BBBAB9ABB754A545A16
:401E8000376A167AF10AD01AB32A923A2EFD0FED6CDD4DCDAABD8BADE89DC98D267C076C645C454CA23C832CE01CC10C1FEF3EFF5DCF7CDF9BAFBABFD98FF89F176E367ED6
:401EC000554E745E932EB23ED10EF01E460C0000860B0000960B0000A60B0000B60B0000C60B0000D60B0000F60B0000E60B0000060C0000160C0000260C0000360C00008D
:401F00009C0E0000200F00002E1100006C0F0000181000002E11000026100000541000006C0F000076100000101100002E1100002E1100002E1100002E1100002E110000B0
:401F40002E1100002E1100002E1100002E110000BC0E0000B8113A2800320101EEDBC9B9AA9B8E82766B60564D443B332C241D17100A044300000000F8B5C046F8BC08BCF6
:401F80009E467047290100002D0A0000F8B5C046F8BC08BC9E46704701010000004B0000C000002088000000E00700000000000000000000000000000000000000000000C3
:401FC00000000000000000000000000000000000000000000000000000000000000000000000000000000000000000000000000000000000000000000000000000000000E1
:4020000000000000000000000000000000000000000000000000000000000000000000000000000000000000000000000000000000000000000000000000000000000000A0
:402040000000000000000000000000000000000000000000000000000000000000000000000000000000000000000000000000000000000000000000000000000000000060
:402080000000000000000000000000000000000000000000000000000000000000000000000000000000000000000000000000000000000000000000000000000000000020
:404B00000000000000200000B01C0000B41C00000100000000007017E02E00000C000000001BB7000000000000000000000000000000000000000000000000000000000045
:404B400000000000731F00000000000000000000000000000000000000000000000000000000000000000000000000000000000000000000000000000000000000000000A3
:404B800000000000E40000200000000000000000000000000000000000000000000000000000000000000000000000000000000000000000000000000000000000000000F1
:404BC00000000000000000000000000000000000000000000000000000000000000000000000000000000000000000000000000000000000000000000000000000000000B5
:404C000000800020114C0000C9C00000C9C0000010B5034B83F308880AF0FEF907F05CFA0080002010B5274C1223236018200AF0D5F890221201244B1A60244B244A1A607A
:404C4000FE210902234A1160234A1A60E022120122490A6022491960CF200002214908602149196021490A60214A1A60CC218901204A1160204A1A602022204B1A60213268
:404C80001F4B1A60013A1F4B1A6002321E4B1A6003321E4B1A60023A1D4B1A6001321D4B1A601D490E2009F0D5FF0E2009F0A2FF00221A4B1A6000200AF0BEF911232360DD
:404CC00010BDC04630001040040301400000014041FF00800003014040FF00800803014042FF00801403014045FF00800C03014043FF00801003014044FF00802800034058
:404D000040010140140101400C010140080101400401014000010140CDF000000C02224010B572B69922234B1A60EE23224A1360EE210902214A1160BB21214A1160214AB5
:404D400013603F22204B1A604032204B1A603D3A1F4B1A601F4A204B1A6002221F4B1A60E5321F4B1A60C33A1E4B1A60C0321E4B1A601E4A1E4B1A601E4A1F4B1A60042205
:404D80001E4B1A60C2231E4A13608A391D4A11601D4A1360BF3B1D4A13601D491D4A11601D4A13601D4A1360FFF73CFF07F064F910BDC046000102400002024000030240F1
:404DC0000005024000060240000004401800044000010440310018000801044018010440000204400802044018020440B66DDB0008030440366C1B000804044018040440A0
:404E0000000504400805044018050440000604402400030008060440000704401807044010B5064C2378002B07D1054B002B02D0044800E000BF0123237010BD480D002020
:404E4000000000000C1F0100084B10B5002B03D00749084800E000BF07480368002B00D110BD064B002BFBD09847F9E7000000004C0D00200C1F0100C000002000000000A3
:404E800010B5002807D00368002B06D01B68002B05D0984704E0FF2002E0FF2000E0FF2010BDC04610B5002807D00368002B06D09B68002B05D0984704E0FF2002E0FF2074
:404EC00000E0FF2010BDC04610B5002807D00368002B06D0DB68002B05D0984704E0FF2002E0FF2000E0FF2010BDC04610B5002807D00368002B06D01B68002B05D0984726
:404F000004E0FF2002E0FF2000E0FF2010BDC04610B5002807D00368002B06D09B68002B05D0984704E0FF2002E0FF2000E0FF2010BDC04610B5002807D00368002B06D083
:404F4000DB68002B05D0984704E0FF2002E0FF2000E0FF2010BDC04610B5002807D00368002B06D01B69002B05D0984704E0002002E0002000E0002010BDC04610B50028E0
:404F800007D00368002B06D05B69002B05D0984704E0002002E0002000E0002010BDC04610B500280CD00368002B0BD09B69002B01D0984707E0C3685888421C5A8002E00D
:404FC000002000E0002010BD10B5002811D00368002B10D0DB69002B01D098470EE0C3681A79002A09D01888081A41424841C0B204E0002002E0002000E0002010BDC04699
:4050000010B5002807D00368002B06D01B68002B05D0984704E0FF2002E0FF2000E0FF2010BDC04610B5002807D00468002C06D0A468002C05D0A04704E0002002E00020DC
:4050400000E0002010BDC04610B5002807D00468002C06D0E468002C05D0A04704E0002002E0002000E0002010BDC04610B500280CD00368002B0BD09B69002B01D0984705
:4050800007E0C3685888421C5A8002E0002000E0002010BD10B5002811D00368002B10D0DB69002B01D098470EE0C3681A79002A09D01888081A41424841C0B204E00020A1
:4050C00002E0002000E0002010BDC04610B5002807D00368002B06D01B68002B05D0984704E0FF2002E0FF2000E0FF2010BDC04662B6704710B50349034800F075FCFFF7F1
:40510000F7FF10BDC4000020A40D002072B67047034B5868C005431E9841C0B27047C04600ED00E010B504060302FF221204134021001943030AFF2212021A400B00134337
:40514000000E184310BDC04610B5FFF7EBFF10BD40BA80B27047C04610B5FFF7F9FF10BDC36800221A7000207047C04610B583681A7A002A02D01B68984703E01B6898477D
:405180004342584110BDC04610B58368002903D05A68187A904705E05A68187A43425841C0B29047002010BD10B504000449054800F01AFCE36801221A70002010BDC04646
:4051C000CC000020A40D002010B58468C36800221A71E368984763689847002010BDC04610B583681A7D8A4203D91B690800984700E0002010BDC046C36800221A7000207E
:405200007047C04610B5836819791868FFF7E8FF10BDC04670B5040085680649064800F0E3FB2B689847AB689847E36801221A71002070BDD4000020A40D002010B5040086
:4052400083681868C3681B79002B02D10021FFF73DFFE36801221A70002010BD70B585680024002609E0002120006B699847002802D00123A3401E4301342B7E9C42F2DBAA
:40528000300070BD10B5030040689C68DB6800221A7002F06FF963689847002010BDC04670B50400466885680849094800F09CFB2B6898472B699847697E300002F042F921
:4052C000E36801221A70002070BDC046DC000020A40D002010B58468A3689847002803D1E368984723699847607E10BD10B58368C268002111715B689847002010BDC046AD
:40530000F8B50C1E47688668C56819D0AB68002B18D1EB68002B17D14879B268002173699847002807D1F369B0689847AC600020E860386009E0F369B0689847FF2004E001
:40534000FF2002E0FF2000E0FF20F8BDF0B5474680B480460F00151E44688668C3689A6803D1B36A984780B22DE0002928D02368002B08D15079B268012173699847022380
:405380002360002414E0022B1CD15079B2680121B369984703232360F3E7736A6A1E944201D1012000E000203919B26898470134AC42F2DB4346DB689A68DA60280002E03A
:4053C000002000E0002004BC9046F0BDF8B54F464646C0B480460F00161E44688568C3689B68994603D1EB6A984780B22EE0002929D02368002B14D14B465879AA680021BF
:405400006B6998474B461B799E4206D10023A380201D320039000CF067FD02232360002409E0022B11D101332360F8E7385DA9682B6A98470134B442F8DB4346DB689A684F
:40544000DA60300002E0002000E000200CBC90469946F8BD70B546688568C468A3688B4225D1FFF753FEE368002B0BD0EB69A868984723886288934201D0013323800023C4
:40548000E3600EE03368002B09D1EB69A868984723886288934204D00133238001E0A368E3600023A360FFF723FE002000E0FF2070BDC04670B5040085680549054800F064
:4054C00093FA2B689847E36801221A71002070BDE4000020A40D002010B58368C268002111715B689847002010BDC04600207047C268138851888B4201D001331380002086
:405500007047C04610B50B00141E826803D19368984784B207E0002904D0D26821001800904700E00024200010BDC046F8B50D00171E866803D13369984787B221E000292A
:405540000FD133699847874202D33369984787B23C0003E073699847013CA4B2002CF9D10FE033699847B84208D2002709E07369984728700135013CA4B200E03C00002C69
:40558000F5D13800F8BDC04670B5040085680549054800F029FA2B689847E36801221A71002070BDEC000020A40D0020C36800221A7100207047C04670B5050014008368FB
:4055C00058680AF073F9002800D00024EA68138851888B4201D001331380200070BDC04670B50500080011001C00AB685B6822000AF094F8002800D00024EA68138851882C
:405600008B4201D001331380200070BD70B50500080011001C00AB685B68220009F066FF002800D00024EA68138851888B4201D001331380200070BD70B50400856806490A
:40564000064800F0D1F92B68A8689847E36801221A71002070BDC046F4000020A40D0020F8B5070015001E008488641AA4B29C4206D303685918320028000CF035FC0BE0A3
:4056800003689C466144220028000CF02DFC28193968321B0CF028FCF8BDC046F8B5070015001E008488641AA4B29C4206D3006840181A0029000CF017FC0AE0036858182A
:4056C000220029000CF010FC38682919321B0CF00BFCF8BD4389CB189BB243818288934201D39B1A4381C388C91889B2C1808A4202D2C280438903817047C04603898B4294
:4057000004D28288521A9B18038101E05B1A0381C388C91889B2C1808388994202D9C380038943817047C046C3888B4204D80023C380438903810AE05B1AC3800389C9189A
:4057400089B201818388994201D3C91A018170470023C380438103817047C04670B50500080014002989130002002800FFF778FF21002800FFF7D8FF200070BD70B50500FC
:40578000080014006989130002002800FFF786FF21002800FFF79EFF200070BD70B505000E0014001100FFF7A9FF2989230032002800FFF773FF200070BDC0460F2318408B
:4057C000014B185C7047C046B424010070B50500FFF7F4FF04002809FFF7F0FF00020443A0B2FFF7B5FC70BD70B506000D00140006E02878FFF7EAFF308002360135013CAB
:40580000002CF6D170BDC04600230AE0094AD25C82420AD0424008498A5C012A07D00133DBB20F2BF2D9FF2002E0180000E018007047C046B4240100A020010070B5FFF712
:405840008BFC0500C0B2FFF7DFFF040083B20F2B07D82D0AE8B2FFF7D7FF00010443A0B200E0014870BDC046FFFF0000F8B506000D00140000270CE02888FFF7DFFFFF28E1
:4058800003D900233370FF2700E0307001360235013C002CF0D13800F8BDC04600E018000368002BFBD1704770B506000D0014001000FFF7F3FF336898420CD025606B6817
:4058C00063606B68002B01D1746000E01C606C60B3680133B36070BD70B506000D0014001000FFF7DBFF336898420CD02B68236065602B68002B01D1346000E05C602C60E6
:40590000B3680133B36070BD70B504000D000800FFF7C4FF216888420ED0002908D12560656000232B606B60A3680133A36003E02A002000FFF7D0FF70BDC04670B504005B
:405940000D000800FFF7AAFF236898420BD06168002904D129002000FFF7D6FF03E02A002000FFF7A1FF70BD70B505000C000800FFF794FF2B68984215D12368002B02D1C5
:4059800063682B6001E062685A606368002B02D123686B6001E022681A60002323606360AB68013BAB6070BD03680B6001604368013343607047C04610B5036808E01A6828
:4059C000002A04D1196043680133436004E01300002BF4D1FFF7E8FF10BDC04600E018000368002BFBD1704770B505000C000B68002B0ED10068002803D12800FFF7DCFFF5
:405A000007E0FFF7EBFF844203D021002800FFF7D3FF70BD10B5040005490648FFF7E4FF23696361044B236101224523E25410BDFC000020A40D0020B15A000003694361D1
:405A400000230361452283547047C04670B584B008AC2678856948004118880069688C46604401786C46217062704479B44200D934006A469470220019006B46D81C0CF0BD
:405A800033FA0334E3B228786A46002101F0B6FE04B070BD00B583B001A900230B7003334B700222062001F0E1FE03B000BDC046F0B5474680B488B0050084697B4B9B78DC
:405AC000052B00D9EEE09B00794AD3589F46794B59780022002627E07200921993006268944663441A7891421BD104AC6270002290462270A2705F79E77099683A0005A8FC
:405B00000CF0F2F93A1DD2B22100042001F0AEFE43460093012231002800FFF797FF002205E00136F6B20122237A9E42D4D3002A00D1B7E0FFF7AEFFB4E05E490A7804ABCF
:405B40001A704D785D708E789E7003313200132068440CF0C9F9002000230EE05900C9188A0061688C46624411788D4203D15279964206D001200133DBB2227A9342EDD304
:405B800000E00020002800D18CE0FFF783FF89E0484B5878002110E04B005B189A0063689B5C984207D10023009304222800FFF74DFF002305E00131C9B2237A9942EBD32E
:405BC0000123002B6ED0FFF765FF6BE0394B5878DE78002110E04B005B189A0063689B5C984207D10096344B02222800FFF72EFF002305E00131C9B2237A9942EBD3012359
:405C0000002B4FD0FFF746FF4CE02A4B58789E780022002111E04B005B189A0063689B5C984207D10096254B07222800FFF70EFF002205E00131C9B20122237A9942EAD3F2
:405C4000002A2FD0FFF726FF2CE004AD0D22194928000CF049F96B78032B16D104AB1A7802AE7270002232709D78B5702A00132169440B2068440CF037F90335EBB26078A8
:405C80003200022101F0BAFD0CE0012B0AD104AB1B7802AA53700023137060780233012101F0ACFD08B004BC9046F0BD94100020D4240100981000209C1000209B100020BD
:405CC0000369436100230361452283547047C04600B583B06B46DA1D11708369D9799879012301F08BFD03B000BDC0460122064B1A80FE32054B1A70373A054B1A80C53A2D
:405D0000044B1A707047C0464A100020640D00204C1000200401002070B505008469164904311648FFF760FE2B696B61144B2B6101224523EA54FFF7D9FF124D200008302B
:405D4000290001F029FC20001830290001F024FC200028300C4901F01FFC200038300B4901F01AFC20005030094901F015FC0022084B5A7070BDC04604010020A40D00202A
:405D8000CD5D000088130000B80B000010270000B31500004810002030B585B01C0085696B4619705A70032A08D19C7022000899D81C0CF099F80334E3B200E002236879B4
:405DC0006A46002101F01AFD05B030BD70B588B004008569CC4B9B78212B00D93AE29B00CA4AD3589F4604AC0D22C94920000CF07BF86378072B16D000242DE004AB1878CC
:405E000053009B189B0029688C4663441978884206D15A799868132169440CF065F819E20132D2B200E000222B799A42E6D311E204AB197863001B199B002A689446634413
:405E40001A78914206D11979AF4B58780D2304AA01F0D4FC0134E4B22B799C42E8D3F9E104ABAC4A12881A800093022303220121FFF792FFEEE1A64A13781B025278134323
:405E8000A44A138004AA13800092022303220121FFF782FFDEE10023009301220E21FFF77BFFD7E19C4B5B78022B05D90023009301220921FFF770FF28002830974901F03E
:405EC0006BFBC7E104AD0D22914928000CF00CF8AA781321694402A80CF006F86B78042B00D0B7E102AB9B78002B00D0B2E10093012203212000FFF74FFFABE104AD0D2299
:405F0000834928000BF0F0FF6B78042B00D0A1E102AB9B78002B00D09CE10093012203212000FFF739FF95E104AD0D22784928000BF0DAFFAA781321694402A80BF0D4FF31
:405F40006B78022B00D085E102AB9B78002B00D080E103AB1A88724B1A800023009303220C212000FFF718FF74E104AD0D22684928000BF0B9FFAA781321694402A80BF07A
:405F8000B3FF6B78042B00D064E102AB9B78002B00D05FE10093012208212000FFF7FCFE58E10E225F4B1A7054E104AD0D22584928000BF099FFAA781321694402A80BF068
:405FC00093FF6B78022B00D044E102AB9B78002B00D03FE103AB1A88534B9A8100230093012206212000FFF7D7FE33E110224D4B1A702FE104AD0D22454928000BF074FFBF
:40600000AA781321694402A80BF06EFF6B78022B00D01FE102AB9B78002B00D01AE1424A103203AB03CB03C21B78137000230093032202212000FFF7AFFE0BE11322394B2A
:406040001A7007E11422374B1A7003E104AD0D222F4928000BF048FFAA781321694402A80BF042FF6B78042B00D0F3E002AB9B78002B00D0EEE00093032204212000FFF7AC
:406080008BFEE7E01622274B1A70E3E004AC0D221F4920000BF028FFA2781321694402A80BF022FF6378022B00D0D3E00422132169441E480BF018FFCCE0174B0133009370
:4060C000012303220721FFF767FE28005030134901F062FABEE00022134B1A700E4B02325A7001330093012301320721FFF754FE00212000FFF7ECFD28006030FA2189007A
:4061000001F04AFAA6E0C04694100020F8240100981000204C100020640D0020B80B00004A1000204E1000200401002044100020494B1B78012B11D1484B5B78022B0DD1EE
:40614000464B01225A7001330093012302320721FFF722FE01212000FFF7BAFD3E4B1B78022B0ED13D4B01225A70013300930123023207212000FFF70FFE02212000FFF715
:40618000A7FD354B1B78022B64D028006030322101F002FA5EE00122304B5A705AE0304B1B78002B03D001222C4B5A7052E000222A4B5A704EE02A4A13781B025278134382
:4061C000284A13804423C05C00230022052101F015FB3FE00122244B5A703BE0204B1A781E4B9A704423C05C00230022212101F005FB2FE0194B9B78002B2BD01A4B5B78C6
:40620000002B0BD08123E95C013BE85C7F3B174A01F0F4FA0122164BDA701BE0124B1B780A2B0ED9104C00266670114BDE70621C8123E95C013BE85C7F3B01F0DFFA26701D
:4062400008E00133084A137028007030FA21890001F0A2F908B070BD04010020640D0020981000204C10002048100020491000208015002070B5050084690F490F48FFF7F4
:40628000B3FB2B696B610E4B2B6101224523EA54250001CDFEF72AFE0A21280001F07CF920001430052101F077F920008830322101F072F970BDC04620010020A40D0020A2
:4062C000696500000369436100230361452283547047C04610B5846920002430072200210BF00BFE2B23E35CE26A10021843626C00210BF002FE2F3400232370637010BDE1
:406300000200002005E0054B1B5C934204D00130C0B20C28F7D900207047C046D0250100F0B5474680B484B00500019102AB9A1D0023138013889BB2007819021B0A4340FE
:406340004C4E5B009B5B4B409BB2138013889BB2687819021B0A43405B009B5B4B409BB21380FFF7CDFF062800D978E002AB9A1DDB889BB2A87819021B0A434030005B00DD
:406380009B5B4B409BB21380118889B2EB782E7936021E436B791B0433431E00AB791B0633430E02090AFF2427001F4079404900095A714089B211801688B6B2190A3702A3
:4063C000B846370A21400E007E407600315A4646714089B211801688B1B21E0CB0460F020E0A4146214071404900095A794089B21180118889B21B0E0E02090A4B405B000D
:406400001B5A73409BB21380002203AB1A801FE002AB991DDB889BB2EF792A7A12023A431600687A000402003243A87A0006104303AA1688365C18021B0A73405B000D4EC8
:406440009B5B43409BB20B80138801339BB213806B469A8803AB1B889BB29A42D8D802ABDA8892B2DA80D88880B204B004BC9046F0BDC046B021010010B582B06B469A1DB2
:406480000023138013889BB201781C021B0A4B400B495B005B5A63409BB2138013889BB2447818021B0A63405B005B5A43409BB2138013889BB21380108880B202B010BD53
:4064C000B021010070B58469062907D85A223123E2540D4B5A5C3223E25414E05A223E23E254094B5A5C3F23E25425003E352800FFF7C2FFFEF72CFE4023E0522068042289
:406500002900FEF729FD70BDD0250100072902D009290BD014E00B490B780122934302221343DBB2042213430B7009E005490A7801231343DBB202229343042213430B7072
:406540007047C04650100020024B00225A7005321A70704754100020024B01225A7004321A70704754100020F0B583B005008469CA4B18785B78984200D0ACE2C74B9B78D5
:406580000C2B00D9ACE29B00C54AD3589F468422A35A0933A352220084328723E15C013BE05C843B01F02AF99AE2002200212068FEF7E4FCC7B2002F19D100231BE02100B8
:4065C000243101222068FEF7D9FC2423E35C5A2B0AD1FFF7C1FF4423E85C00230022022101F00CF9012306E00136F6B200E00026BE42E4D90023002B00D071E2201D0A21A7
:4066000000F0CAFF6CE2002200212068FEF7B6FC00282AD02100253101222068FEF7AEFC2523E05CFFF76CFE041E13D0062809D84423E85C00230022032101F0DFF8994B46
:406640001C704DE24423E85C00230022062101F0D5F845E22800FFF73DFE4423E85C00230022002101F0CAF83AE201F0E1F837E2002200212068FEF781FC002830D00122BF
:40668000210026312068FEF779FC002313E02622A15C9A00A06C844662445278914208D14423E85C00230022042101F0A7F8012306E00133DBB24C22A25C9342E7D30023FB
:4066C000002B00D00CE2FFF73FFF0122764B1A704423E85C00230022002101F08FF8FFE101F0A6F8FCE1002200212068FEF746FC03282ED90422210027312068FEF73EFCB0
:406700002723E35CA26A10021843FEF71DFD60648423E35A013398420AD9624A1278062A00D163645F4A1278032A0AD1636408E0002806D14423E85C00230022062101F0C0
:406740005DF84423E85C00230022052101F056F8C6E101F06DF8C3E1002200212068FEF70DFC626C904210D32B23E35CE16A0902194392B22068FEF701FC4423E85C0023B7
:406780000022062101F03AF8AAE101F051F8A7E1002200212068FEF7F1FB01287AD9022221002F312068FEF7E9FB2F23E35C3022A05C00021843FEF7CBFC6B469E1DD88036
:4067C000636CD9B220002430FFF7AAFD33889BB2984247D12523E05CFFF792FD6A46107006281AD803D10B212800FFF76BFE6B461B78032B0DD12333E35C202B04D10B2123
:406800002800FFF75FFE08E007212800FFF75AFE03E007212800FFF755FE6B461B78062B07D94423E85C433B6A46092100F0E6FF06E04423E85C00230022072100F0DEFFE3
:40684000FFF782FE184B5B78002B1BD1A933E15C013BE05C0023002200F0D0FF0122124B5A700FE009212800FFF72CFE4423E85C00230022002100F0C1FF2800FFF72AFD0F
:40688000FFF762FE4423E85C00230022002100F0B5FF25E100F0CCFF22E1C046941000209C2501008A100020670D00202522A15C9800A26C944660440278914210D1262251
:4068C000A15C427891420BD12B23E35CE26A12021A43636CDBB2C178807800F08FFFFFE00133DBB200E000234C22A25C9342DDD3F6E07C4B19782800FFF708FEF0E07A4B62
:406900001B78DB0609D508212800FFF7DBFD764A137810218B43137050E0206DC388002B4CD006226946FEF719FF5A223123E2546B461A783223E2546B465A783323E25403
:406940006B465B886A46908800041843FEF7EAFB60636B465B886A46928812041A4304D092B2A16B206DFEF7F9FE6B469978250031352800FFF7D4FCFEF7EAFBA0872000F5
:4069800064300D2229000BF0AFFA072229002068FEF7E2FA6B465A88A16B2068FEF7DCFA21003C3102222068FEF7D6FA4E4A117801230B43DBB202218B4313704A4B1B78EF
:4069C0001B0727D56523E35C6A4613706623E35C53706723E35CA26E12021A436B46991C13041B0C0B80130C4B80002A08D06B23E35CE16E0902194392B2206DFEF7CEFE7A
:406A000006226946206DFEF7C9FE374A137808218B43137020001430052100F0BDFD5FE0324B5B78002B0AD0304B1B78002B03D0013B2E4A137002E001222D4B1A702C4B27
:406A40001B78002B06D009212800FFF73BFD0022274B1A70200054300F2100F09DFD3FE0214A117810230B4313704423E85C002300220B2100F0C2FE32E09A00A16C8C4618
:406A800062449178884223D11A498D78D1788D421ED1184BD9788D1D206D8388C6889B1B9D421DD813786D462B7053786B706980090CA98006226946FEF760FE0D4BDB78B1
:406AC000002B0DD06A88206D0649FEF757FE07E00133DBB200E000234C22A25C9342CCD303B0F0BD981000205010002054100020670D002094100020F0B5474680B484B0CD
:406B000005008469A64B9B780C2B00D943E19B00A44AD3589F46A44B1E785F783D00002321E0D800C01A226811180A79954216D202A90E704F70236818180678427812023F
:406B4000324383781B0413431A00C3781B0613435B5D8B700322062000F088FE1BE1AA1AD5B20133DBB222799342DAD313E101A9AA230B708C4C66780122072000F076FE81
:406B800002AA1670A37853704423E85C423B0C2100F034FEFFE0844840448446F700BF1B2368D819057843781B022B431A00817809040B001343C1780906194302796046FF
:406BC0000BF092F923689C4667443B794344DBB298460136F6B202E0002398460D2623799E42D8D342467049082000F03FFED2E06D4840448446F700BF1B2368D819057820
:406C000043781B022B431A00817809040B001343C17809061943027960460BF065F923689C4667443B794344DBB298460136F6B202E000239846002623799E42D8D342461A
:406C40005949092000F012FEA5E0574840448446B700BF19A368D819057843781B022B431A00817809040B001343C17809061943027960460BF038F9A3689C4667443B79CB
:406C80004344DBB298460136F6B202E0002398460026237B9E42D8D3424643490A2000F0E5FD1023FF33E15C013BE05C0023002200F0A4FD6FE086235B00E35C02A90B7019
:406CC0000E23FF33E35C4B7002220B2000F0CEFD61E00222344901A80BF006F900226B46DA7051E026686B46D978C9B2CA00531AF3181B7901AA1578AB4236D96B46DF1C99
:406D0000DB78DAB2D3009B1AF31819785A7812020A431000997809040A000243D978090611433B78DAB2D3009B1AF3181A7902AE30000BF0D9F801AB5B78735525683B7854
:406D4000DBB2DA00D21AAA183978C9B2CB00591A69183C78E4B2E000031BEB181B7989795079320000F04AFD15E06B46D81CDA78D2B2D1008A1AB3181B79EB1A01AA137089
:406D800003780133DBB2037022796B4603331B78DBB29A42A6D204B004BC9046F0BDC04694100020F42501009810002010B5040005490648FEF718FE23696361044B2361F8
:406DC00001224523E25410BD28010020A40D0020F96A00000369436100230361452283547047C04630B5094B1B689C69E369991D002306E0DA00256AAC46624412798918FD
:406E000001338342F6DB080030BDC0466C0D002070B50D4B1B689B691E6AC0003618316800220A480BE00D780402030A6B405B00074D5B5B2000584080B2013201313379BF
:406E40009A42F0DB70BDC0466C0D0020FFFF0000B0210100F8B505000E0017000C4B1B689C69A069FEF702F96085618DA069FEF711F90028F9D03B0032002900A069FEF7C0
:406E8000E3F8618DA069FEF705F90128F9D0F8BD6C0D0020F8B505000E0017000C4B1B689C69A069FEF7E2F86085618DA069FEF7F1F80028F9D03B0032002900A069FEF700
:406EC000B1F8618DA069FEF7E5F80128F9D0F8BD6C0D0020F0B585B00400154B1B689E69002520E02000FFF77DFFB38A6B431818E700336ADB191A795200400002A9FFF708
:406F0000C9FF336ADB191A7902A901A8FEF7AEFC002807D1336ADF193A79386801A90AF0E3FF02E00135002DDCDD05B0F0BDC0466C0D002070B5074B1B689D69002403E0FE
:406F4000E0B2FFF7C7FF01342C23EB5C9C42F7DB70BDC0466C0D0020F0B5474680B4C0B01E4B1B689F690020FFF73CFF83B2984600262AE0F4003B6A1B1919681A796800D5
:406F80006844FEF731FC3B6A9C46644420792D18ADB2013600E000252C23FB5C9E420EDA7C2DE7D900240BE0B88A6043404440006A0092B26946FFF74DFF013400E00024F4
:406FC000002CF1DD4544ABB298462C23FB5C9E42E1DB40B004BC9046F0BDC0466C0D002070B58569144B1A785B789A4222D1124B9B78002B0ED01DE0E0B2FFF709FF6300B0
:407000006A6A944663441A88904201D018800026013401E0002401262C23EB5C9C42EBDB002E01D1FFF798FF298D002902D0280000F0B2FA70BDC04694100020F0B587B088
:407040000600846936493748FEF7CEFCA069FDF7D7FF354B1E60354B238201235B4263820023A38200251AE0638AEA00216A8C466244107919021B0A43405B002C481B5AF3
:407080004B4063821379A28AD318A3826F00636A9C466744E8B2FFF7BBFE388001352C23E35C9D42E0DB0C2201A9E069FFF7F2FE04AD062201A92800FEF7D8FB2A88238A97
:4070C0009A420CD104AB5A88638A9A4207D104AB9A88A38A9A4202D1FFF72CFF0CE0FFF73BFF21001031062201A8FEF77DFB0C2201A9E069FFF7AEFE336973610D4B3361FC
:407100004423F25C6273F35C23730023A373218D002902D0200000F03FFA07B0F0BDC04630010020A40D00206C0D0020052C0000B0210100E16F000010B50400806900F09B
:4071400043FA23696361002323614522A35410BD7047C04610B5002307E00479A24206D3121B92B208300133DBB28B42F5D30068801810BD010000784A788B781B0213436D
:407180001A0A8018C0B2C318DBB2CA789B18D8B20B79C018C0B2FF3843425841C0B27047F0B583B00C001700C669FF226B46DA71002515E02268D05C6A46D11DD279121A42
:4071C0000A700133DBB200E0002322799342F1D392B221683068FDF7BFFE08340135EDB2BD42F1D3306801226B46D91DFDF7B4FE03B0F0BD70B584B06B46DE1DD971C5694E
:407200000F246C44CB432370012231002868FDF7A3FE286801222100FDF79EFE04B070BD70B504000D008669C06900228B5E002B00D0A3E03378012B2AD17278B3781B0231
:407240001343052B00D999E09B004E4AD3589F46717D0131C9B22000FFF7CCFF8EE0417B2000FFF7C7FF89E0817B2000FFF7C2FF84E0C17B2000FFF7BDFF7FE0017C2000C7
:40728000FFF7B8FF7AE0417C2000FFF7B3FF75E0022B0FD17378B27812021A43737D9A426CD2017B8068FFF755FF01782000FFF7A1FF63E0032B11D17378B27812021A439A
:4072C000737D9A425AD2017B8068FFF743FFF3780370AA212000FFF78DFF4FE0042B05D1027B81682000FFF75BFF47E0052B04D1817C2000FFF77EFF40E0802B3ED0812B64
:407300003CD0822B3AD0832B04D1AA212000FFF771FF33E0842B31D0852B2FD0862B2DD0872B2BD0882B29D0062B0FD17378B27812021A43737D9A4220D2017B8068FFF78E
:4073400009FF01782000FFF755FF17E0072B11D17378B27812021A43737D9A420ED2017B8068FFF7F7FEF3780370AA212000FFF741FF03E05A212000FFF73CFF00232B801A
:40738000002070BD54260100F0B5474680B404000D008669C76900228B5E762B0DD002DC002B05D075E0912B29D0A92B67D070E00023984676232B8001E000239846012259
:4073C00031003868FDF7DAFD012866D133781A070CD51901BA7C1B090B437F210A405340DBB2803BDBB2082B04D9E3E7013BDBB2062BDFD82B4B236491232B8001E00023E5
:407400009846711C04223868FDF7B8FD042808D0236C0A2B03D90A3B23640A203EE000232364236C002B01D1013398464346002BC0D133781B070CD40EE030780301BA7CB0
:40744000000918437F231340434033700131C9B200E000210429F0D93000FFF78BFE0028A8D07378B07800021843FDF775FE7070000AB07000233382A9332B8001E0002356
:407480009846310010312000FFF7CAFE002891D004E000232B80002000E00A2004BC9046F0BDC0468813000070B506008469C56910491148FEF798FA336973610F4B336178
:4074C00000236375A96806E00879627D8218627508310133DBB22A7B9342F5D32868FDF705FD0749300000F057F901224523F25470BDC04638010020A40D00205171000057
:407500008973000010B50400044900F069F900234522A35422696261236110BD8973000070B506000D00FDF7F1FD044C6368984723689847024B5E805D60FEE7042C01004F
:407540008C10002070B504000D00C368002B03D101006120FFF7E4FFFDF7D8FDA560210003480C30FEF7EAF9FDF7C2FD002070BD700D002010B50400FDF7C8FD0023A36001
:40758000210004480C30FEF7EFF9FDF7B1FD002010BDC046700D002070B505000E00FDF7B5FD6C7BFF2C02D1FDF7A2FD08E0AE60290004481830FEF7C1F9FDF799FD0024AD
:4075C000200070BD700D002010B50400FDF79EFD0023A360210004481830FEF7C5F9FDF787FD002010BDC046700D0020064B5B6A04E044229A5C824204D05B68002BF8D10E
:40760000002000E018007047700D0020F0B54F4680B484B00D00170001930AAB1E780BAB1B789946FF2A03D188424BD1002E4BD103AB18705D709F70DE702800FFF7D6FF91
:40764000041E43D00369002B01D1FF2F40D1FDF75DFD224A9388D2889B1A321D93422CD34B46002B0CD0042203A91C48FEF786F8002E14D0B2B201991848FEF77FF80EE01B
:40768000002203ABDA70002E04D0B2B201991348FEF784F8042203A91048FEF77FF8A38C01339BB2A384E18C1A1C8B4200D20A1CE284FDF71DFD00200BE029043943084897
:4076C000FFF72EFFFF2004E0FF2002E0002000E0FF2004B004BC9146F0BDC046CC0500203702000030B583B02A4B1A6B01321A6319680CE04C688B68002B01D0013B8B6023
:407700008B68002B02D12348FEF72EF921000029F0D1204BDC681BE0A368002B01D0013BA360A368002B10D1E368002B02D020699847A0606568A368002B08D121001548B5
:407740000C30FEF711F92C0002E0646800E02C00002CE1D10F4B9C6917E06568A368002B01D0013BA360A368002B0DD1A27B617B207B01930093FFF749FF002804D1210076
:4077800004481830FEF7F0F82C00002CE5D103B030BDC046700D002010B582B000291AD0836A002B19D14433C45C083BC4540133C454FF220133C2540023C03A835481627B
:4077C00083853E3A01920093FE3221002000FFF71DFF002002E0FF2000E0FF2002B010BD002906D0836A994205D101238385002002E0FF2000E0FF207047C046F0B583B043
:4078000004000D0016001F00FDF782FC01280AD0064B587801230193009733002A002100FFF7F4FE00E0FF2003B0F0BD9410002010B582B0FDF76CFC01280FD0094B9878D5
:40784000FF280CD059781C7801220192DB780093054B02002000FFF7D9FE00E0FF2002B010BDC0469410002098100020F0B583B004000D001600FDF74BFC012811D00A4B1C
:407880009878FF280ED01878FF280BD05F780123019300962B00220001003800FFF7B6FE00E0FF2003B0F0BD9410002010B5094909483430FEF798F8084C23689847A3688F
:4078C00098470748FDF744FF064B1868FDF70EFB10BDC04640010020700D0020042C0100CC050020B80D002070B505004523C45C002C17D1FDF70AFC4423EB5CFF2B06D10E
:407900000A4A137A013BDBB213724422AB54290007482430FEF712F8FDF7EAFBAB682800984700E0FF24200070BDC04640010020700D002010B504004523C35C002B08D04E
:40794000FDF7E4FBE36820009847FDF7D1FB002000E0FF2010BDC046F8B53D4B5B6898473C4B1B6898473C4B1A685B68934305D1374B1B6898470022374B1A60374BDB8819
:407980009BB2002BEFD0FDF7C1FB354C042221003248FDF7E3FEE278002A04D092B231492E48FDF7DBFEFDF7A3FB2F4B5C6A4BE04423E35C2A4A5278934244D1284A1278A9
:4079C000934220D1264B9B78FF2B1CD1A36A002B35D021002C3120009847002802D10023A3622CE0012807D14423E05C00230022FF21FFF703FF22E023003033010018009B
:407A0000FFF7CAFD1BE02369002B18D0114EB768B847154D2B6BEB637668B047200023699847B8472B6BEA6B9B1AEB63B047AB8F228C934203D92384094B9B786384A38C2B
:407A4000013BA3848FE76468002CB1D18BE7C046042C0100102C0100080E0020CC0500209410002098100020700D002000228B5E002B02D0532B04D007E053230B80002318
:407A800000E00123002BF8D103E000230B80002000E001207047C046F0B585B08569C469DC4B9B78213BDAB20B2A01D900F045FC9300D94AD3589F46D84B1B78012B00D090
:407AC000BEE0D64B1B79142B02D0162B00D082E0D24B9B79012B07D101212069FDF7F4F90022CE4B9A7103E000212069FDF7ECF9CB4B1B78002B4FD00022C94B1A70C74B7D
:407B00001B79162B3BD1C54B5B7A012B0CD101216068FDF7D9F90021A068FDF7D5F90021E068FDF7D1F98BE0022B0CD10121A068FDF7CAF900216068FDF7C6F90021E06859
:407B4000FDF7C2F97CE0032B0CD10121E068FDF7BBF900216068FDF7B7F90021A068FDF7B3F96DE000216068FDF7AEF90021A068FDF7AAF9E0680021FDF7A6F960E0002199
:407B80006068FDF7A1F90021A068FDF79DF9E0680021FDF799F953E0A04B1B79162B0CD101216068FDF790F90121A068FDF78CF9E0680121FDF788F909E0142B07D10121F2
:407BC0006068FDF781F9A0680121FDF77DF90122934B1A7034E0152B32D1904B9B79012B07D101212069FDF76FF900228B4B9A7103E000212069FDF767F9894B5B78002B29
:407C00000FD00022864B5A7000216068FDF75CF90021A068FDF758F9E0680021FDF754F90EE001227E4B5A7001216068FDF74CF90121A068FDF748F9E0680121FDF744F99D
:407C400028001430FA218900FFF7A6FC75E3002201AB1A7001236A46537103216A4691716A46D3716F4E77790731380008F0C4FA02AB18700A21380008F044FB09236B44CD
:407C80001970B6790A21300008F0B6FA0A236B4418700A21300008F035FB0B236B441970614E2D23F75C0A21380008F0A5FA03AB18700A21380008F025FB0D236B44197057
:407CC0002E23F65C0A21300008F096FA0E236B4418700A21300008F015FB0F236B4419704E4B5B790A2B49D14D4A93780133DBB293700C2B00D9E7E09B004C4AD3589F468F
:407D000020690121FDF7E0F8DEE0012302AA29210420FFF773FDD7E0012309226A4429210420FFF76BFDCFE060690121FDF7CCF8CAE001230A226A4429210420FFF75EFD31
:407D4000C2E001230B226A4429210420FFF756FDBAE00023002222210420FFF74FFDB3E00023002222210420FFF748FD2B4B15221A7100222A498A705A71A5E00B2B59D132
:407D8000274A93780133DBB293700C2B00D99BE09B00274AD3589F4620690121FDF794F892E0012301AA29210420FFF727FD8BE001236A46053229210420FFF71FFD83E08F
:407DC00060690121FDF780F87EE001236A46063229210420FFF712FD76E001236A46073229210420FFF70AFD6EE00023002222210420FFF703FD67E000230022222104209E
:407E0000FFF7FCFC054B15221A71002204498A705A7159E09410002090260100BC110020BC0D00209C11002034150020C0260100F42601000C2B47D1D54A93780133DBB212
:407E400093700C2B40D89B00D24AD3589F4620690121FDF739F837E0012303AA29210420FFF7CCFC30E001230D226A4429210420FFF7C4FC28E060690121FDF725F823E0C9
:407E800001230E226A4429210420FFF7B7FC1BE001230F226A4429210420FFF7AFFC13E00023002222210420FFF7A8FC0CE00023002222210420FFF7A1FCB74B15221A7174
:407EC0000022B3498A705A71B34B1B78012B00D033E228002430FA218900FFF75DFB2CE2AE4B1B78022B10D0032B1BD0012B26D10021A068FCF7E8FF0021E068FCF7E4FF6A
:407F000060680121FCF7E0FF17E200216068FCF7DBFF0021E068FCF7D7FFA0680121FCF7D3FF0AE200216068FCF7CEFF0021A068FCF7CAFFE0680121FCF7C6FFFDE100211A
:407F40006068FCF7C1FF0021A068FCF7BDFFE0680021FCF7B9FFF0E18D4BDB78002B0DD101228B4BDA7020680121FCF7ADFF28005430FA214900FFF70FFBDEE1844E002345
:407F8000F37020680021FCF79FFF33790133DBB23371022B09D900247D4B1C7128005430FFF712FB7E4B1C70C7E128005430FA214900FFF7F1FAC0E101212068FCF784FF2D
:407FC00001216068FCF780FF0121A068FCF77CFF0121E068FCF778FF01212069FCF774FF01216069FCF770FF0121A069FCF76CFF0121E069FCF768FF0121206AFCF764FF0B
:408000000121A06AFCF760FF606A0121FCF75CFF93E100212068FCF757FF00216068FCF753FF0021A068FCF74FFF0021E068FCF74BFF00212069FCF747FF00216069FCF724
:4080400043FF0021A069FCF73FFF0021E069FCF73BFF0021206AFCF737FF0021A06AFCF733FF606A0021FCF72FFF66E14D4B1B78DB0704D501212068FCF726FF03E00021A9
:408080002068FCF721FF474B1B789A0714D501216068FCF719FF00212068FCF715FF0021A068FCF711FF0021E068FCF70DFF00212069FCF709FF05E0DB0703D40021606811
:4080C000FCF702FF374B1B785A0714D50121A068FCF7FAFE00212068FCF7F6FE00216068FCF7F2FE0021E068FCF7EEFE00212069FCF7EAFE05E0DB0703D40021A068FCF735
:40810000E3FE284B1B781A0714D50121E068FCF7DBFE00212068FCF7D7FE00216068FCF7D3FE0021A068FCF7CFFE00212069FCF7CBFE05E0DB0703D40021E068FCF7C4FEEF
:40814000184B1B78DA0614D501212069FCF7BCFE00212068FCF7B8FE00216068FCF7B4FE0021A068FCF7B0FE0021E068FCF7ACFE05E0DB0703D400212069FCF7A5FE094B06
:408180005B785B0610D50121606AFCF79DFE13E0BC0D002028270100BC11002098100020F31F00204C120020654B1B78DB0703D40021606AFCF788FE614B1B789B0614D572
:4081C0000121A069FCF780FE00212068FCF77CFE0021A068FCF778FE0021E068FCF774FE00212069FCF770FE03E00021A069FCF76BFE534B1B785B060CD50121E069FCF728
:4082000063FE0021A069FCF75FFE00212068FCF75BFE03E00021E069FCF756FE484B5B789B0704D060690121FCF74EFE85E060690021FCF749FE80E0414B1B780122134056
:4082400014D0404A1278142A10D10021A068FCF73BFE0021E068FCF737FE00216068FCF733FE20690021FCF72FFE66E0002B14D0344A12781E2A10D100216068FCF724FEA6
:408280000021E068FCF720FE00212069FCF71CFEA0680121FCF718FE4FE0002B14D0294A1278282A10D100216068FCF70DFE0021A068FCF709FE00212069FCF705FEE068FA
:4082C0000121FCF701FE38E0002B14D01D4B1B783C2B10D100216068FCF7F6FD0021A068FCF7F2FD0021E068FCF7EEFD20690121FCF7EAFD21E000216068FCF7E5FD00217A
:40830000A068FCF7E1FD0021E068FCF7DDFD20690021FCF7D9FD10E00B4BDB78012B06D1012003F025FF012004F00AF805E0002003F01EFF002004F003F805B0F0BDC04644
:408340004C120020EC0D00209C11002010B5C169124B1B78002B16D1114A53790133DBB25371032B03D900220D4B5A7103E048690021FCF7A9FD0A4B5B79042B0BD9002201
:40838000074B5A7107E0054B5B79002B03D148690021FCF799FD012010BDC046BC110020BC0D002010B5040003694361044B03610449FFF7F1F901224523E25410BDC04624
:4083C000997A00006D7A000070B504000369436100250561816AFFF703FA4523E55470BD00228B5E002B02D0402B04D007E040230B80002300E00123002BF8D103E00023D6
:408400000B80002000E001207047C04670B505008469036943611C4B03611C49FFF7BCF901224523EA5401212000FFF7B5F8200010300521FFF7B0F8200020300A21FFF76E
:40844000ABF8200030303221FFF7A6F8200040306421FFF7A1F825005035C8212800FFF79BF8962149002800FFF796F820007030FA214900FFF790F820008030FA21890048
:40848000FFF78AF870BDC04625860000E183000070B504000369436100250561816AFFF79FF94523E55470BD10B503F0B9FD064B1B78012B04D1054B1A78054B5A7202E0C4
:4084C0000122034B5A7210BDA7110020A6110020BC11002010B50122054B1A70054C607A010003F0B7FD627A034B1A7010BDC046B9110020BC110020A611002070B5124D88
:4085000000241DE0EB88002B05D0104A61008B5A01338B5203E0630000210C4A995263000A4A9A5A96239B009A4206D9200004F0BDF863000021054A99520A350134E4B203
:408540000A2CDFD970BDC046CC200020C40D002010B5064B1B88002B07D0013B9BB2034A1380002B01D104F0B5F810BDD01F0020254A137801218B4301318B4302318B4354
:4085800004318B4308318B43137051784020814351709B0602D400221C4B1A701C4A0023137053709370D37013711A4A137053709370D370137118498B718B72CB720B73D4
:4085C0004B73D372137253729371D371CB71CB7312486422FF32835401328354104A53715372002153801171138011729172D1729173D17311745174D1741175517591759C
:408600006223FF33C15470474C120020EC0D002074120020E4110020A81100202C130020C811002070B504008069E569BE4B9B782E3BDAB2082A00D9EBE29300BB4AD35828
:408640009F460121FEF7A8FFE3E210300521FEF7A3FFB74B1B78012B00D0DAE2B54B5B78002B00D0D5E2B34B1B78002B00D0D0E2002224210420FFF7C1F8CAE220300A2124
:40868000FEF78AFF6868FCF70DFCAB4CE082A868FCF708FC20832868FCF704FC80B26083012323771FE0A54A191D490051184C88D91C490051184C801900343149005118CA
:4086C000CC881900333149005118CC8019006831490051184C88190067314900521854800133954A1377944B1B7F182BDBD9934C6087914D2A8B9E23E252EA8A6433E252A1
:4087000021003C3120000A3003F064FC2100A03120006E3003F05EFC611DFF312000D23003F058FC5423E25AEA836433E35A2B848E214900605A6884E2802381D118CD0FDE
:4087400069184910A1809A4205D9D31AA72252007A498B5204E09B1AA722520077498B52764B5880002300221B210720FFF746F84FE230303221FEF70FFFFFF7BFFEFFF746
:40878000E7FE46E240306421FEF706FF6C4B1B78142B03D101226B4B1A7014E01E2B03D10222684B1A700EE0282B03D10322654B1A7008E03C2B03D10422624B1A7002E0B5
:4087C0000022604B1A70604A13790133DBB21371B2235B00594AD35C012B04D15A4A53790133DBB25371584B1B79DBB2092B00D881E0554B00221A711A7A0132D2B21A725A
:408800009A7A0132D2B29A729B7ADBB2592B05D901224E4B1A7000224B4B9A724A4BDB7ADBB2962B05D90122484B5A700022464BDA72454B1B7ADBB23B2B5CD90122434BC0
:408840009A70414B00221A729A7B0132D2B29A73DA7B0132D2B2DA739B7BDBB2012B02D901223A4BDA70384B9B7BDBB2022B02D90122364B1A71344B9A7B354B5B8A9A42B4
:4088800002D90122334BDA712F4B9B7BDBB2092B31D901222F4B9A712B4A00239373537C0133DBB25374537CDBB2052B23D90122284B9A72244A00235374537D0133DBB2E6
:4088C0005375537DDBB2012B02D90122214BDA721D4B5B7DDBB2032B02D901221D4B1A73194B5B7DDBB2052B05D90122194B5A73A069FFF73DFE144B5B79DBB2092B00D852
:4089000087E1114A00235371537A0133DBB25372537ADBB23B2B00D87BE100235372538801339BB2538074E1941000205C270100E1110020BC110020C40D00202C13002043
:40894000EC0D0020E0110020C8110020E4110020D41F0020A81100205030C821FEF71CFEAC4A138801339BB2138013889BB2132B02D90122A84BDA72A64B1B889BB22C2224
:40898000FF32934200D844E1A24A00231380137C0133DBB21374137CDBB2012B02D901229D4B1A729B4B1B7CDBB2022B02D90122994B5A71974B1B7CDBB2042B02D901226A
:4089C000954B5A72934B1B7CDBB2092B00D820E10122914B9A728F4B00221A74DA7C0132D2B2DA741A7D0132D2B21A751A7D8B4B9B8A9A4205D30122874BDA710022854B77
:408A00001A75844BDB7CDBB2012B00D801E1814B00221A80DA7401227F4B9A71F9E0603096214900FEF7B8FD7A4A93790133DBB293719379DBB2C72B06D9794B00221A70BE
:408A400074498A710132DA71754B1B78012B00D0DFE0734B5A7A734B1B78DBB29A4200D1D7E0FFF737FDD4E07030FA214900FEF793FD6D4B5B789B073DD0664AD37901330D
:408A8000DBB2D371D379DBB2132B00D8C1E00023D371137B0133DBB21373137BDBB2052B00D8B6E000231373537B0133DBB25373537BDBB2092B00D8ABE000235373937C78
:408AC0000133DBB29374937CDBB2472B00D8A0E00122564B9A7354494B789343002254480270022083431E3083434B70494BDA711A739A748DE0474B0022DA711A739A74D9
:408B000087E08030FA218900FEF746FD494A13780133DBB21370FA2B02D90022454B1A70454B1A785B789A4207D0434B042199705A700122414B5A7011E03F4B9B78002B44
:408B400003D0013B3C4A937009E004223A4B9A7000223A4B5A7004F0E3FB04F0C1FB2C23374AD35C374A1278934208D00421364A1170344A13700122304B1A7011E0324B58
:408B80001B78002B03D0013B2F4A137009E004222D4B1A700022294B1A7005F0B9F905F097F92A4B1B78002B20D1294924228B5C0133DBB28B54022B09D801D103F08AFDD2
:408BC0000023002221210420FEF718FE0EE00023002222210420FEF711FE002124231C4AD1540122194B1A70FFF75EFC124BDB78002B06D00023002227210420FEF7FEFD7B
:408C000007E00022064B9A70002327210420FEF7F5FD70BDC8110020E4110020D41F0020BC110020A61100204C120020A8110020F21F00202C1200209C11002080150020E0
:408C400034150020F0110020B8110020E1110020C40D0020F8B504000E008769C56900228B5E392B31D004DC002B09D0322B12D078E0492B5CD0532B70D0442B72D142E084
:408C8000FB78002B34D02868FCF78AF938800A2323642833338039882868FCF795F9002808D1236C012B03D9013B2364013062E00023236469682868FCF72AF901222E4937
:408CC0002868FCF749F939233380002200212868FCF742F9002849D1112228492868FCF73BF969682868FCF725F90023FB7031E03B79002B2ED02868FCF752F938800A2361
:408D000023643A33338039882868FCF75DF9002808D1236C012B03D9013B236401302AE00023236469682868FCF7F2F849233380002200212868FCF721F9002818D11B2227
:408D40000E492868FCF71AF969682868FCF7F2F800233B7153233380002300E00123002B08D08DE700233380002004E0012002E0012000E06420F8BDEA0D0020F4110020DF
:408D800070B504008569C6693068FCF7AFF8092372685371736801261E71280008306421FEF7FAFB23696361044B236104492000FEF7F2FC4523E65470BDC046118E00002A
:408DC000558C000070B504000369436100250561816AFEF705FD4523E55470BD10B50022094B5A7008E0084904784A786240074CA25C4A70190001304B1EDBB20029F2D1C9
:408E0000014B587810BDC046EA0D002080270100F8B54F464646C0B48569494B9B781D2B02D01E2B6BD087E00123EB7000202871444CAA222270444A12786270A3701E3334
:408E4000E370424E33789A06D20F9146DA07D20F90469A07D20F94465F07FF0F1907C90FDB06DB0F424652004A449046624692004244FF00D219090152185B01D3182371AA
:408E80007178CB07DB0FDBB28A07D20F4F07FF0FBC460F07FF0FC906C90F52009B18624692009B18FA009B18090159186171284B1B78A371274B9B780233E37120723223E2
:408EC0006372A072E37223736073A073E07310212000FFF783FF207463791F494B72207933785A06D20FDB0992018218DB01D3188B72280018306421FEF74EFB1CE000235D
:408F0000EB7001332B71154C09212000FFF766FF637A98420BD10B4A917C114B1970D17CD970517D5971917D9971127D1A71280008306421FEF730FB0CBC90469946F8BD8F
:408F400094100020F41100202C1200204C120020EC0D0020BC11002074120020051200209C11002000228B5E002B02D03D2B04D007E03D230B80002300E00123002BF8D14B
:408F800003E000230B80002000E001207047C04670B50400856903694361084B03610849FEF7FAFB01224523E25400212869FBF767FF0A212800FEF7EFFA70BDD19000009F
:408FC000658F00000369436100230361452283547047C04670B50500354B1B78DB0604D4334A137840218B431370314C2378012293431F3293431E3A934302329343043295
:40900000934308329343237063783032934363700023284A1370284A137053709370D3701371264A137053709370D370137124498B718B72CB720B734B73D3721372537249
:409040009371D371CB71CB731E4A6421FF315354013153541C4A53715372002153801171138011729172D1729173D17311745174D17411755175917528003030FEF7A4FA8C
:4090800028001C30FEF7A0FA23785B0603D428006430FEF799FA00232C22AB540232AB540A4A13706222FF3206498B5470BDC0464C120020EC0D002074120020E4110020B4
:4090C000A81100202C130020C8110020AB12002070B505008469B64B9B78192B01D900F002FE9B00B34AD3589F462069FBF7DAFE6369984200D16BE19843AF4B18600022FC
:40910000AE4BDA70AE4B5B68984204D1AB4A93780133937002E00022A84B9A70A84B5860A64B9B78042B00D882E1A44B9B88984200D190E0A14B9880202861D00AD802287A
:4091400022D002D8012818D072E1042824D0102842D06DE180235B00984267D004D8402856D080285BD063E180239B00984264D08023DB00984267D05AE1002300221021EB
:409180000220FEF73BFB53E1894B5878002300221921FEF733FB4BE1854B1B78022B10D1884B1B789B060CD4A869FFF713FF854B1A7820210A431A705A7820310A435A7097
:4091C00002E0A869FFF706FF794B5878002300220921FEF713FB2BE1784A117E01230B43DBB202218B431376774B1B7B9B0700D41EE100231A003D310F20FEF7FFFA17E118
:409200006B4B5878002300220F21FEF7F7FA0FE1002300220D210220FEF7F0FA08E1002300220B210220FEF7E9FA01E10023002207210220FEF7E2FAFAE00023002206210D
:409240000220FEF7DBFAF3E00023002202210220FEF7D4FAECE0102850D00AD8022829D002D8012814D0E3E004282FD0082839D0DEE0302865D002D8202856D0D8E08023BD
:40928000DB00984200D17FE0403398426BD0CFE04A4AD38801339BB2D380FA2B00D8C7E00022464BDA80424B587813001121FEF7A5FABDE0414AD38801339BB2D380FA2B6C
:4092C00000D8B5E000223D4BDA80B1E03B4AD38801339BB2D380FA2B00D8A9E00022374BDA80A5E0354AD38801339BB2D380FA2B00D89DE00022314BDA8099E02F4AD38842
:4093000001339BB2D380FA2B00D891E011000022CA800B7E01208343013003430B7613003E210D30FEF76AFA82E0244AD38801339BB2D380FA2B00D87AE000221F4BDA80C2
:4093400076E01E4AD38801339BB2D380FA22520093426DD90022194BDA80130041210F20FEF74CFA64E0154AD38801339BB2D380FA2B5DD90022114BDA800D4B5878130078
:409380001521FEF73BFA53E00C4AD38801339BB2D380FA22520093424AD90022074BDA800A4B9B78934243D10132084B9A703FE094100020802801005012002054120020EC
:4093C000EC0D00204C120020F4140020BC110020DA4A00239370D3780133DBB2D370042B26D9137EDB0719D5D54B1B7C9B0715D5137E0125AB431376D14A107CC107CB0FDF
:4094000001215940012319400300AB430B4313741032012348210F20FEF7F0F9C74B0022DA809A80C74B587800230021FEF7E6F90A212000FEF7B0F800F055FCC14B1B78E8
:409440000F2B03D1C04A1278012A05D0022B16D1BE4B1B78DB0712D42000FFF7BBFDBB4B197801220A431A70597840220A435A700023002230210320FEF7C0F902E02000C0
:40948000FFF7A8FDB14A1378DB07DB0FB0490B7002234E210F20FEF7B1F900F024FCAD4B1B78012B24D10022AB4B9A71A94B1B79142B05D1A74B01329A7114321A7150E03C
:4094C000152B0CD1A34B01229A7109325A7100221A7100232A210420FEF790F941E0162B3FD19C4B01229A715A7213321A7138E0984B1B79022B02D10322964B1A71934B4F
:409500001B7862221340022B0FD02000FFF762FD8E4B197802220A431A70597840220A435A7014228D4B1A7002E02000FFF752FD01238A4A4B210F20FEF760F9834C0223DD
:4095400022004D210F20FEF759F9022322004E210F20FEF753F9022322004F210F20FEF74DF97A4B1B789B07DB0F794A5370BAE3784B1B78012B25D10022774B9A71754B70
:409580001B79142B05D1734B01329A7115321A714FE0152B0CD16F4B01229A710A325A7100221A7100232A210420FEF727F940E0162B3ED1674B01229A7101325A72123212
:4095C0001A7136E0634B1B79012B02D10222614B1A715E4B1B785B070FD42000FFF7FAFC5A4B197804220A431A70597840220A435A701E22594B1A7002E02000FFF7EAFCD8
:409600000123564A4B210F20FEF7F8F84F4C022322004D210F20FEF7F1F8022322004E210F20FEF7EBF8022322004F210F20FEF7E5F8464B1B785B07DB0F454A937052E3DD
:40964000444B1B78012B1DD10022434B9A71414B1B79162B07D13F4B01329A7102325A7211321A7146E0152B44D13A4B01229A710B325A7100221A7100232A210420FEF7BA
:40968000BDF837E00122334B1A71200054303449FDF782FF2D4B1B781B070FD4A869FFF799FC2A4B197808220A431A70597840220A435A702822294B1A7002E0A869FFF7EE
:4096C00089FC0123254A4B210F20FEF797F81F4C022322004D210F20FEF790F8022322004E210F20FEF78AF8022322004F210F20FEF784F8154B1B781B07DB0F144AD37014
:40970000F1E2144B1B78002B4AD1104B1B78DB062AD42000FFF75EFC0C4B197810220A431A70597840220A435A703C220B4B1A70200030300B49FDF72FFF18E054120020F4
:40974000F414002094100020981000204C12002074120020BC110020C8110020EC0D0020204E0000C02709002000FFF733FC0123D64A4B210F20FEF741F8D54C02232200FA
:409780004D210F20FEF73AF8022322004E210F20FEF734F8022322004F210F20FEF72EF8CB4B1B78DB06DB0FCA4A13719BE2CA4B1B78002B00D096E2C54B5B785B060FD413
:4097C0002000FFF707FCC24B597840220A435A70197802220A431A701422BC4B1A700BE02000FFF7F7FBBA4B1B785B0604D5B84A137840218B4313700123B44A4B210F20E5
:40980000FDF7FCFFB24C022322004D210F20FDF7F5FF022322004E210F20FDF7EFFF022322004F210F20FDF7E9FFAC4B1B7B9B0700D458E2002300223F210F20FDF7DEFF04
:4098400051E2A54B1B78002B00D084E0A44B1B78012B27D10022A24B1A70A24B1B79022B0DD0032B15D0012B1CD199494B780832934308329343042213434B7012E0944912
:409880004B78042293430C329343082213434B7008E08F494B780422934304329343102213434B70904B1B780F2B04D18F4B1A788F4B1A7003E08E4A1378013313708C4BAB
:4098C0001B78012B14D18B4A0023D37113739374894A93737E4A517801230B43DBB202218B435370200040308449FDF755FE2BE0022B19D1764B5B789B0608D474494B7887
:40990000012293431A00022313434B701CE0704A537801218B4300207549087002218B431E318B4353700FE0694A537801218B4300206F49087002218B431E318B435370C8
:4099400020004030FDF740FE0123694A4C210F20FDF754FFC7E10022664B9A715E4B1B79142B08D15C4A0023137013710121D171634A1370B7E11422574B1A71B3E1614AF2
:4099800013780133DBB21370514A5278920732D04F49487801220243D2B2022082434A70534A01211170012B09D149494B78102293430C3A9343082213434B7093E1022B58
:4099C00009D143494B780822934308329343042213434B7087E1032B00D084E13C494B780422934304329343102213434B700022444B1A7077E10023424A13703C4A1370CB
:409A000071E1354B1B78002B00D06CE1304A517820230B43537020004030FDF7D5FD62E1314B1B780F2B03D1304A1278012A05D0022B1CD1264B1B785B0618D4244A1378C4
:409A400040210B4313705078014351709B0611D500222D23E2541E4A137820218B431E398B43137020001C30FDF7AEFD02E02000FFF7B0FA643424492000FDF78DFD234A51
:409A800013780133DBB21370012B04D9104A137840218B4313700E4B1A7842231340422B03D11422094B1A704EE044231340442B03D11E22054B1A7046E048231340482BA3
:409AC00026D12822014B1A703EE0C046EC0D00204C12002074120020BC110020F4140020711200209C1100209410002098100020F21F0020C8110020A811002060EA000090
:409B0000E111002070120020A0BB0D00AB12002050231340502B03D13C22734B1A7013E053060BD51422704B1A70704A117802230B43DBB201218B43137005E0A869FFF728
:409B400049FA2000FDF740FD0123674A4B210F20FDF754FE654C022322004D210F20FDF74DFE022322004E210F20FDF747FE022322004F210F20FDF741FEB4E05C4B1B78C2
:409B80000F2B13D15B4B1B78012B0CD12000FFF721FA564B197820220A431A70597840220A435A7002E02000FFF714FA4F4B1B789B0645D525001C354F492800FDF7ECFC7F
:409BC0002E22A35C0133DBB2A354022B13D002D8012B03D03BE0062B24D938E01422424B1A70424A117802230B4313702D22A35C0133A3542BE03D4A137802218B431370B2
:409C00000022394B1A702D23E35C172B1FD92D23E254364A13781E318B4313702800FDF7D3FC14E00021304A117030490A78022082430A70052B0AD900222E23E25406E001
:409C4000A869FFF7C7F920001C30FDF7BDFC0123254A4B210F20FDF7D1FD244C022322004D210F20FDF7CAFD022322004E210F20FDF7C4FD022322004F210F20FDF7BEFDD6
